:020000040000FA
:0600000007309F00E1281B
:08000800D500030ED600000034
:100010000B308F00DD308E0008308506CC0B1728A2
:100020007830CC00CD0B17280A30CD00CE010C1053
:10003000560E8300D50E550E090083169B018312C0
:10004000A330CF000512803086001F30D700043067
:10005000CA00D1011530D0000B1D2C280B11D70B75
:100060002C28823081001530D000CF0B38285E2834
:10007000D10164205C08D100003C03194A285108D2
:10008000013C03194D285108023C03195028C03087
:1000900086005228883086005228903086005228E8
:1000A000A03086000B1D52282730D200D20B5628D4
:1000B0000B1182308100D00B522833280130CE0042
:1000C00005160030860008004A08043A031D7B2804
:1000D00083161C141A088312DB00C0305B05D100A4
:1000E0000310D10CD10CD10CD10CD10CD10C510876
:1000F000DC00CA0308004A08033A031D8B2830308D
:100100005B05D1000310D10CD10CD10CD10C5108DE
:10011000DC00CA0308004A08023A031D99280C3083
:100120005B05D1000310D10CD10C5108DC00CA03CF
:1001300008000430CA0003305B05DC0083169B0A0C
:10014000831208001C1555309D00AA309D009C1498
:100150009C18A8281C119B0A0800303051070C1A63
:10016000B228AF289900CA0B0800B920CB0B0800B1
:10017000BD200430CA002030C5280A30CB000D3025
:100180000C1AC328C02899000A300C1AC828C528A0
:10019000990008008207533465346E346434203487
:1001A000733479346D3462346F346C342034663493
:1001B00069346C34653420346E346F3477343A34B7
:1001C000FF3431309000831603130C148312031391
:1001D0000B308F00DD308E000B178B178316031347
:1001E00057308100831383160313003085000630D7
:1001F00086009B0183120313850186018316181262
:1002000098160C309900831298178C1285150516D4
:100210003030D80003111A30D4007830CC000A30C6
:10022000CD000130CE000430D3005A30D1009030E0
:10023000980003108C1A1E2903102E290630180569
:10024000031926291A081812181619291A08DB008A
:100250002B3A031D2E29D30B2E29D8290B1D192922
:100260000B11D10B19294E08003E03193A298C1A9B
:100270003D2933291D201A0833298B13DA01031075
:100280008C1A442903103F290630180503194C29FC
:100290001A08181218163F291A08DB00243A031D01
:1002A00055290130DA0003103F290F305A02031C90
:1002B0005A293F2901308A005A0882073F296D29AF
:1002C0007329792986298C29932999299F29A52978
:1002D000AB29B129B729BF29C9295B08473A031DB2
:1002E0003E29DA0A3F295B08503A031D3E29DA0A03
:1002F0003F295B08473A031D7F29DA0A3F295B083B
:10030000523A031D3E290630DA003F295B08473A7E
:10031000031D3E29DA0A3F295B08413A031D3E29A5
:100320000830DA003F295B084D3A031D3E29DA0AFE
:100330003F295B08433A031D3E29DA0A3F295B083F
:100340002C3A031D3E29DA0A3F2933305B02031899
:100350003E29DA0A3F293A305B0203183E29DA0ABD
:100360003F2936305B0203183E29DA0A3F295B0831
:10037000D9003A305B0203183E29DA0A3F293630A9
:100380005B0203183E2930305B020319D029DA0AD8
:100390003F293A305B0203183E29083085063E2982
:1003A00058085902031DC72985158A011D203E29B9
:1003B000BD20BD20C9014908CA209900FF3C03198E
:1003C000E5290C1EE129C90ADB298B13903098001E
:1003D0001A080430CA00D1012030840003108C1A9E
:1003E000F3290310EE29063018050319FB291A0812
:1003F00018121816EE291A08DB002B3A0319232AC3
:100400005B08303A0319112A5B08313A0319112AA3
:100410005B08323A0319112A5B08333A0319112A8F
:10042000EE293030DB02CA0B162A1B2A5B08D107E3
:10043000D10DD10DEE295B0851078000840A0430EC
:10044000CA00D101EE29203084002930D300831660
:100450009B018312000883169A00A2208312840A4B
:10046000D30B2A2ABD20BD202030C52083169B0136
:1004700083122930D3000430CA000A30CB00D101E6
:1004800083161C141A089B0A8312DB00C0305B051C
:10049000D100D10CD10CD10CD10CD10CD10CAD2090
:1004A00030305B05D100D10CD10CD10CD10CAD207A
:1004B0000C305B05D100D10CD10CAD2003305B05B5
:0A04C000D100AD20D30B402A642ABE
:02400E00213F50
:00000001FF
